{
  "contractName": "MyCollectible",
  "abi": [
    {
      "inputs": [],
      "stateMutability": "nonpayable",
      "type": "constructor"
    },
    {
      "anonymous": false,
      "inputs": [
        {
          "indexed": true,
          "internalType": "address",
          "name": "_owner",
          "type": "address"
        },
        {
          "indexed": true,
          "internalType": "address",
          "name": "_approved",
          "type": "address"
        },
        {
          "indexed": true,
          "internalType": "uint256",
          "name": "_tokenId",
          "type": "uint256"
        }
      ],
      "name": "Approval",
      "type": "event"
    },
    {
      "anonymous": false,
      "inputs": [
        {
          "indexed": true,
          "internalType": "address",
          "name": "_owner",
          "type": "address"
        },
        {
          "indexed": true,
          "internalType": "address",
          "name": "_operator",
          "type": "address"
        },
        {
          "indexed": false,
          "internalType": "bool",
          "name": "_approved",
          "type": "bool"
        }
      ],
      "name": "ApprovalForAll",
      "type": "event"
    },
    {
      "anonymous": false,
      "inputs": [
        {
          "indexed": true,
          "internalType": "address",
          "name": "_from",
          "type": "address"
        },
        {
          "indexed": true,
          "internalType": "address",
          "name": "_to",
          "type": "address"
        },
        {
          "indexed": true,
          "internalType": "uint256",
          "name": "_tokenId",
          "type": "uint256"
        }
      ],
      "name": "Transfer",
      "type": "event"
    },
    {
      "inputs": [
        {
          "internalType": "address",
          "name": "_approved",
          "type": "address"
        },
        {
          "internalType": "uint256",
          "name": "_tokenId",
          "type": "uint256"
        }
      ],
      "name": "approve",
      "outputs": [],
      "stateMutability": "payable",
      "type": "function",
      "payable": true
    },
    {
      "inputs": [
        {
          "internalType": "address",
          "name": "_owner",
          "type": "address"
        }
      ],
      "name": "balanceOf",
      "outputs": [
        {
          "internalType": "uint256",
          "name": "",
          "type": "uint256"
        }
      ],
      "stateMutability": "view",
      "type": "function",
      "constant": true
    },
    {
      "inputs": [
        {
          "internalType": "uint256",
          "name": "",
          "type": "uint256"
        }
      ],
      "name": "collectibles",
      "outputs": [
        {
          "internalType": "address",
          "name": "owner",
          "type": "address"
        },
        {
          "internalType": "string",
          "name": "URI",
          "type": "string"
        },
        {
          "internalType": "uint256",
          "name": "price",
          "type": "uint256"
        }
      ],
      "stateMutability": "view",
      "type": "function",
      "constant": true
    },
    {
      "inputs": [
        {
          "internalType": "uint256",
          "name": "_tokenId",
          "type": "uint256"
        }
      ],
      "name": "getApproved",
      "outputs": [
        {
          "internalType": "address",
          "name": "",
          "type": "address"
        }
      ],
      "stateMutability": "view",
      "type": "function",
      "constant": true
    },
    {
      "inputs": [
        {
          "internalType": "address",
          "name": "_owner",
          "type": "address"
        },
        {
          "internalType": "address",
          "name": "_operator",
          "type": "address"
        }
      ],
      "name": "isApprovedForAll",
      "outputs": [
        {
          "internalType": "bool",
          "name": "",
          "type": "bool"
        }
      ],
      "stateMutability": "view",
      "type": "function",
      "constant": true
    },
    {
      "inputs": [
        {
          "internalType": "uint256",
          "name": "_tokenId",
          "type": "uint256"
        }
      ],
      "name": "ownerOf",
      "outputs": [
        {
          "internalType": "address",
          "name": "",
          "type": "address"
        }
      ],
      "stateMutability": "view",
      "type": "function",
      "constant": true
    },
    {
      "inputs": [
        {
          "internalType": "address",
          "name": "_from",
          "type": "address"
        },
        {
          "internalType": "address",
          "name": "_to",
          "type": "address"
        },
        {
          "internalType": "uint256",
          "name": "_tokenId",
          "type": "uint256"
        }
      ],
      "name": "safeTransferFrom",
      "outputs": [],
      "stateMutability": "payable",
      "type": "function",
      "payable": true
    },
    {
      "inputs": [
        {
          "internalType": "address",
          "name": "_from",
          "type": "address"
        },
        {
          "internalType": "address",
          "name": "_to",
          "type": "address"
        },
        {
          "internalType": "uint256",
          "name": "_tokenId",
          "type": "uint256"
        },
        {
          "internalType": "bytes",
          "name": "_data",
          "type": "bytes"
        }
      ],
      "name": "safeTransferFrom",
      "outputs": [],
      "stateMutability": "payable",
      "type": "function",
      "payable": true
    },
    {
      "inputs": [
        {
          "internalType": "address",
          "name": "_operator",
          "type": "address"
        },
        {
          "internalType": "bool",
          "name": "_approved",
          "type": "bool"
        }
      ],
      "name": "setApprovalForAll",
      "outputs": [],
      "stateMutability": "nonpayable",
      "type": "function"
    },
    {
      "inputs": [
        {
          "internalType": "address",
          "name": "_from",
          "type": "address"
        },
        {
          "internalType": "address",
          "name": "_to",
          "type": "address"
        },
        {
          "internalType": "uint256",
          "name": "_tokenId",
          "type": "uint256"
        }
      ],
      "name": "transferFrom",
      "outputs": [],
      "stateMutability": "payable",
      "type": "function",
      "payable": true
    },
    {
      "inputs": [
        {
          "internalType": "string",
          "name": "tokenURI",
          "type": "string"
        }
      ],
      "name": "mint",
      "outputs": [
        {
          "internalType": "uint256",
          "name": "",
          "type": "uint256"
        }
      ],
      "stateMutability": "nonpayable",
      "type": "function"
    },
    {
      "inputs": [
        {
          "internalType": "uint256",
          "name": "tokenId",
          "type": "uint256"
        }
      ],
      "name": "getPrice",
      "outputs": [
        {
          "internalType": "uint256",
          "name": "",
          "type": "uint256"
        }
      ],
      "stateMutability": "view",
      "type": "function",
      "constant": true
    },
    {
      "inputs": [
        {
          "internalType": "uint256",
          "name": "tokenId",
          "type": "uint256"
        },
        {
          "internalType": "uint256",
          "name": "price",
          "type": "uint256"
        }
      ],
      "name": "setPrice",
      "outputs": [],
      "stateMutability": "nonpayable",
      "type": "function"
    },
    {
      "inputs": [],
      "name": "getCount",
      "outputs": [
        {
          "internalType": "uint256",
          "name": "",
          "type": "uint256"
        }
      ],
      "stateMutability": "view",
      "type": "function",
      "constant": true
    }
  ],
  "bytecode": "0x6080604052600160045534801561001557600080fd5b50612a57806100256000396000f3fe6080604052600436106100dd5760003560e01c8063a22cb4651161007f578063d85d3d2711610059578063d85d3d271461029c578063e7572230146102d9578063e985e9c514610316578063f7d9757714610353576100dd565b8063a22cb4651461022c578063a87d942c14610255578063b88d4fde14610280576100dd565b806323b872dd116100bb57806323b872dd1461017a57806342842e0e146101965780636352211e146101b257806370a08231146101ef576100dd565b8063081812fc146100e2578063095ea7b31461011f5780630a09859d1461013b575b600080fd5b3480156100ee57600080fd5b5061010960048036038101906101049190612412565b61037c565b6040516101169190612596565b60405180910390f35b6101396004803603810190610134919061236c565b610496565b005b34801561014757600080fd5b50610162600480360381019061015d9190612412565b610876565b604051610171939291906125fd565b60405180910390f35b610194600480360381019061018f9190612261565b610948565b005b6101b060048036038101906101ab9190612261565b610d97565b005b3480156101be57600080fd5b506101d960048036038101906101d49190612412565b610db7565b6040516101e69190612596565b60405180910390f35b3480156101fb57600080fd5b50610216600480360381019061021191906121fc565b610ea1565b60405161022391906126b8565b60405180910390f35b34801561023857600080fd5b50610253600480360381019061024e9190612330565b610f92565b005b34801561026157600080fd5b5061026a61108f565b60405161027791906126b8565b60405180910390f35b61029a600480360381019061029591906122b0565b6110a5565b005b3480156102a857600080fd5b506102c360048036038101906102be91906123d1565b6110fc565b6040516102d091906126b8565b60405180910390f35b3480156102e557600080fd5b5061030060048036038101906102fb9190612412565b6111e1565b60405161030d91906126b8565b60405180910390f35b34801561032257600080fd5b5061033d60048036038101906103389190612225565b611201565b60405161034a919061263b565b60405180910390f35b34801561035f57600080fd5b5061037a6004803603810190610375919061243b565b611295565b005b600081600073ffffffffffffffffffffffffffffffffffffffff1660008083815260200190815260200160002060009054906101000a900473ffffffffffffffffffffffffffffffffffffffff1673ffffffffffffffffffffffffffffffffffffffff1614156040518060400160405280600d81526020017f4e6f742076616c6964204e46540000000000000000000000000000000000000081525090610459576040517f08c379a00000000000000000000000000000000000000000000000000000000081526004016104509190612656565b60405180910390fd5b506001600084815260200190815260200160002060009054906101000a900473ffffffffffffffffffffffffffffffffffffffff16915050919050565b80600080600083815260200190815260200160002060009054906101000a900473ffffffffffffffffffffffffffffffffffffffff1690503373ffffffffffffffffffffffffffffffffffffffff168173ffffffffffffffffffffffffffffffffffffffff16148061058e5750600360008273ffffffffffffffffffffffffffffffffffffffff1673ffffffffffffffffffffffffffffffffffffffff16815260200190815260200160002060003373ffffffffffffffffffffffffffffffffffffffff1673ffffffffffffffffffffffffffffffffffffffff16815260200190815260200160002060009054906101000a900460ff165b6040518060400160405280601581526020017f4e6f74206f776e6572206f72206f70657261746f72000000000000000000000081525090610605576040517f08c379a00000000000000000000000000000000000000000000000000000000081526004016105fc9190612656565b60405180910390fd5b5082600073ffffffffffffffffffffffffffffffffffffffff1660008083815260200190815260200160002060009054906101000a900473ffffffffffffffffffffffffffffffffffffffff1673ffffffffffffffffffffffffffffffffffffffff1614156040518060400160405280600d81526020017f4e6f742076616c6964204e465400000000000000000000000000000000000000815250906106e1576040517f08c379a00000000000000000000000000000000000000000000000000000000081526004016106d89190612656565b60405180910390fd5b50600080600086815260200190815260200160002060009054906101000a900473ffffffffffffffffffffffffffffffffffffffff1690508073ffffffffffffffffffffffffffffffffffffffff168673ffffffffffffffffffffffffffffffffffffffff1614156040518060400160405280600881526020017f4973206f776e6572000000000000000000000000000000000000000000000000815250906107c0576040517f08c379a00000000000000000000000000000000000000000000000000000000081526004016107b79190612656565b60405180910390fd5b50856001600087815260200190815260200160002060006101000a81548173ffffffffffffffffffffffffffffffffffffffff021916908373ffffffffffffffffffffffffffffffffffffffff160217905550848673ffffffffffffffffffffffffffffffffffffffff168273ffffffffffffffffffffffffffffffffffffffff167f8c5be1e5ebec7d5bd14f71427d1e84f3dd0314c0f7b2291e5b200ac8c7c3b92560405160405180910390a4505050505050565b60056020528060005260406000206000915090508060000160009054906101000a900473ffffffffffffffffffffffffffffffffffffffff16908060010180546108bf906128ac565b80601f01602080910402602001604051908101604052809291908181526020018280546108eb906128ac565b80156109385780601f1061090d57610100808354040283529160200191610938565b820191906000526020600020905b81548152906001019060200180831161091b57829003601f168201915b5050505050908060020154905083565b80600080600083815260200190815260200160002060009054906101000a900473ffffffffffffffffffffffffffffffffffffffff1690503373ffffffffffffffffffffffffffffffffffffffff168173ffffffffffffffffffffffffffffffffffffffff161480610a1857503373ffffffffffffffffffffffffffffffffffffffff166001600084815260200190815260200160002060009054906101000a900473ffffffffffffffffffffffffffffffffffffffff1673ffffffffffffffffffffffffffffffffffffffff16145b80610aa95750600360008273ffffffffffffffffffffffffffffffffffffffff1673ffffffffffffffffffffffffffffffffffffffff16815260200190815260200160002060003373ffffffffffffffffffffffffffffffffffffffff1673ffffffffffffffffffffffffffffffffffffffff16815260200190815260200160002060009054906101000a900460ff165b6040518060400160405280601e81526020017f4e6f74206f776e657220617070726f766564206f72206f70657261746f72000081525090610b20576040517f08c379a0000000000000000000000000000000000000000000000000000000008152600401610b179190612656565b60405180910390fd5b5082600073ffffffffffffffffffffffffffffffffffffffff1660008083815260200190815260200160002060009054906101000a900473ffffffffffffffffffffffffffffffffffffffff1673ffffffffffffffffffffffffffffffffffffffff1614156040518060400160405280600d81526020017f4e6f742076616c6964204e46540000000000000000000000000000000000000081525090610bfc576040517f08c379a0000000000000000000000000000000000000000000000000000000008152600401610bf39190612656565b60405180910390fd5b50600080600086815260200190815260200160002060009054906101000a900473ffffffffffffffffffffffffffffffffffffffff1690508673ffffffffffffffffffffffffffffffffffffffff168173ffffffffffffffffffffffffffffffffffffffff16146040518060400160405280600981526020017f4e6f74206f776e6572000000000000000000000000000000000000000000000081525090610cda576040517f08c379a0000000000000000000000000000000000000000000000000000000008152600401610cd19190612656565b60405180910390fd5b50600073ffffffffffffffffffffffffffffffffffffffff168673ffffffffffffffffffffffffffffffffffffffff1614156040518060400160405280600c81526020017f5a65726f2061646472657373000000000000000000000000000000000000000081525090610d83576040517f08c379a0000000000000000000000000000000000000000000000000000000008152600401610d7a9190612656565b60405180910390fd5b50610d8e868661139c565b50505050505050565b610db283838360405180602001604052806000815250611450565b505050565b60008060008084815260200190815260200160002060009054906101000a900473ffffffffffffffffffffffffffffffffffffffff169050600073ffffffffffffffffffffffffffffffffffffffff168173ffffffffffffffffffffffffffffffffffffffff1614156040518060400160405280600d81526020017f4e6f742076616c6964204e46540000000000000000000000000000000000000081525090610e97576040517f08c379a0000000000000000000000000000000000000000000000000000000008152600401610e8e9190612656565b60405180910390fd5b5080915050919050565b60008073ffffffffffffffffffffffffffffffffffffffff168273ffffffffffffffffffffffffffffffffffffffff1614156040518060400160405280600c81526020017f5a65726f2061646472657373000000000000000000000000000000000000000081525090610f4a576040517f08c379a0000000000000000000000000000000000000000000000000000000008152600401610f419190612656565b60405180910390fd5b50600260008373ffffffffffffffffffffffffffffffffffffffff1673ffffffffffffffffffffffffffffffffffffffff168152602001908152602001600020549050919050565b80600360003373ffffffffffffffffffffffffffffffffffffffff1673ffffffffffffffffffffffffffffffffffffffff16815260200190815260200160002060008473ffffffffffffffffffffffffffffffffffffffff1673ffffffffffffffffffffffffffffffffffffffff16815260200190815260200160002060006101000a81548160ff0219169083151502179055508173ffffffffffffffffffffffffffffffffffffffff163373ffffffffffffffffffffffffffffffffffffffff167f17307eab39ab6107e8899845ad3d59bd9653f200f220920489ca2b5937696c3183604051611083919061263b565b60405180910390a35050565b600060016004546110a091906127c2565b905090565b6110f585858585858080601f016020809104026020016040519081016040528093929190818152602001838380828437600081840152601f19601f82011690508083019250505050505050611450565b5050505050565b60008060046000815480929190611112906128de565b9190505590506111223382611a1b565b60405180606001604052803373ffffffffffffffffffffffffffffffffffffffff16815260200184815260200160008152506005600083815260200190815260200160002060008201518160000160006101000a81548173ffffffffffffffffffffffffffffffffffffffff021916908373ffffffffffffffffffffffffffffffffffffffff16021790555060208201518160010190805190602001906111ca929190612053565b506040820151816002015590505080915050919050565b600060056000838152602001908152602001600020600201549050919050565b6000600360008473ffffffffffffffffffffffffffffffffffffffff1673ffffffffffffffffffffffffffffffffffffffff16815260200190815260200160002060008373ffffffffffffffffffffffffffffffffffffffff1673ffffffffffffffffffffffffffffffffffffffff16815260200190815260200160002060009054906101000a900460ff16905092915050565b6005600083815260200190815260200160002060000160009054906101000a900473ffffffffffffffffffffffffffffffffffffffff1673ffffffffffffffffffffffffffffffffffffffff163373ffffffffffffffffffffffffffffffffffffffff1614611339576040517f08c379a000000000000000000000000000000000000000000000000000000000815260040161133090612698565b60405180910390fd5b600081141561137d576040517f08c379a000000000000000000000000000000000000000000000000000000000815260040161137490612678565b60405180910390fd5b8060056000848152602001908152602001600020600201819055505050565b600080600083815260200190815260200160002060009054906101000a900473ffffffffffffffffffffffffffffffffffffffff1690506113dc82611c08565b6113e68183611ca9565b6113f08383611e4a565b818373ffffffffffffffffffffffffffffffffffffffff168273ffffffffffffffffffffffffffffffffffffffff167fddf252ad1be2c89b69c2b068fc378daa952ba7f163c4a11628f55a4df523b3ef60405160405180910390a4505050565b81600080600083815260200190815260200160002060009054906101000a900473ffffffffffffffffffffffffffffffffffffffff1690503373ffffffffffffffffffffffffffffffffffffffff168173ffffffffffffffffffffffffffffffffffffffff16148061152057503373ffffffffffffffffffffffffffffffffffffffff166001600084815260200190815260200160002060009054906101000a900473ffffffffffffffffffffffffffffffffffffffff1673ffffffffffffffffffffffffffffffffffffffff16145b806115b15750600360008273ffffffffffffffffffffffffffffffffffffffff1673ffffffffffffffffffffffffffffffffffffffff16815260200190815260200160002060003373ffffffffffffffffffffffffffffffffffffffff1673ffffffffffffffffffffffffffffffffffffffff16815260200190815260200160002060009054906101000a900460ff165b6040518060400160405280601e81526020017f4e6f74206f776e657220617070726f766564206f72206f70657261746f72000081525090611628576040517f08c379a000000000000000000000000000000000000000000000000000000000815260040161161f9190612656565b60405180910390fd5b5083600073ffffffffffffffffffffffffffffffffffffffff1660008083815260200190815260200160002060009054906101000a900473ffffffffffffffffffffffffffffffffffffffff1673ffffffffffffffffffffffffffffffffffffffff1614156040518060400160405280600d81526020017f4e6f742076616c6964204e46540000000000000000000000000000000000000081525090611704576040517f08c379a00000000000000000000000000000000000000000000000000000000081526004016116fb9190612656565b60405180910390fd5b50600080600087815260200190815260200160002060009054906101000a900473ffffffffffffffffffffffffffffffffffffffff1690508773ffffffffffffffffffffffffffffffffffffffff168173ffffffffffffffffffffffffffffffffffffffff16146040518060400160405280600981526020017f4e6f74206f776e65720000000000000000000000000000000000000000000000815250906117e2576040517f08c379a00000000000000000000000000000000000000000000000000000000081526004016117d99190612656565b60405180910390fd5b50600073ffffffffffffffffffffffffffffffffffffffff168773ffffffffffffffffffffffffffffffffffffffff1614156040518060400160405280600c81526020017f5a65726f206164647265737300000000000000000000000000000000000000008152509061188b576040517f08c379a00000000000000000000000000000000000000000000000000000000081526004016118829190612656565b60405180910390fd5b50611896878761139c565b6118b58773ffffffffffffffffffffffffffffffffffffffff16612008565b15611a115760008773ffffffffffffffffffffffffffffffffffffffff1663150b7a02338b8a8a6040518563ffffffff1660e01b81526004016118fb94939291906125b1565b602060405180830381600087803b15801561191557600080fd5b505af1158015611929573d6000803e3d6000fd5b505050506040513d601f19601f8201168201806040525081019061194d91906123a8565b905063150b7a0260e01b7bffffffffffffffffffffffffffffffffffffffffffffffffffffffff1916817bffffffffffffffffffffffffffffffffffffffffffffffffffffffff1916146040518060400160405280601781526020017f4e6f742061626c6520746f2072656365697665204e465400000000000000000081525090611a0e576040517f08c379a0000000000000000000000000000000000000000000000000000000008152600401611a059190612656565b60405180910390fd5b50505b5050505050505050565b600073ffffffffffffffffffffffffffffffffffffffff168273ffffffffffffffffffffffffffffffffffffffff1614156040518060400160405280600c81526020017f5a65726f2061646472657373000000000000000000000000000000000000000081525090611ac3576040517f08c379a0000000000000000000000000000000000000000000000000000000008152600401611aba9190612656565b60405180910390fd5b50600073ffffffffffffffffffffffffffffffffffffffff1660008083815260200190815260200160002060009054906101000a900473ffffffffffffffffffffffffffffffffffffffff1673ffffffffffffffffffffffffffffffffffffffff16146040518060400160405280601281526020017f4e465420616c726561647920657869737473000000000000000000000000000081525090611b9d576040517f08c379a0000000000000000000000000000000000000000000000000000000008152600401611b949190612656565b60405180910390fd5b50611ba88282611e4a565b808273ffffffffffffffffffffffffffffffffffffffff16600073ffffffffffffffffffffffffffffffffffffffff167fddf252ad1be2c89b69c2b068fc378daa952ba7f163c4a11628f55a4df523b3ef60405160405180910390a45050565b600073ffffffffffffffffffffffffffffffffffffffff166001600083815260200190815260200160002060009054906101000a900473ffffffffffffffffffffffffffffffffffffffff1673ffffffffffffffffffffffffffffffffffffffff1614611ca6576001600082815260200190815260200160002060006101000a81549073ffffffffffffffffffffffffffffffffffffffff02191690555b50565b8173ffffffffffffffffffffffffffffffffffffffff1660008083815260200190815260200160002060009054906101000a900473ffffffffffffffffffffffffffffffffffffffff1673ffffffffffffffffffffffffffffffffffffffff16146040518060400160405280600981526020017f4e6f74206f776e6572000000000000000000000000000000000000000000000081525090611d81576040517f08c379a0000000000000000000000000000000000000000000000000000000008152600401611d789190612656565b60405180910390fd5b506001600260008473ffffffffffffffffffffffffffffffffffffffff1673ffffffffffffffffffffffffffffffffffffffff16815260200190815260200160002054611dce91906127c2565b600260008473ffffffffffffffffffffffffffffffffffffffff1673ffffffffffffffffffffffffffffffffffffffff1681526020019081526020016000208190555060008082815260200190815260200160002060006101000a81549073ffffffffffffffffffffffffffffffffffffffff02191690555050565b600073ffffffffffffffffffffffffffffffffffffffff1660008083815260200190815260200160002060009054906101000a900473ffffffffffffffffffffffffffffffffffffffff1673ffffffffffffffffffffffffffffffffffffffff16146040518060400160405280601281526020017f4e465420616c726561647920657869737473000000000000000000000000000081525090611f23576040517f08c379a0000000000000000000000000000000000000000000000000000000008152600401611f1a9190612656565b60405180910390fd5b508160008083815260200190815260200160002060006101000a81548173ffffffffffffffffffffffffffffffffffffffff021916908373ffffffffffffffffffffffffffffffffffffffff1602179055506001600260008473ffffffffffffffffffffffffffffffffffffffff1673ffffffffffffffffffffffffffffffffffffffff16815260200190815260200160002054611fc1919061276c565b600260008473ffffffffffffffffffffffffffffffffffffffff1673ffffffffffffffffffffffffffffffffffffffff168152602001908152602001600020819055505050565b60008060007fc5d2460186f7233c927e7db2dcc703c0e500b653ca82273b7bfad8045d85a47060001b9050833f91506000801b821415801561204a5750808214155b92505050919050565b82805461205f906128ac565b90600052602060002090601f01602090048101928261208157600085556120c8565b82601f1061209a57805160ff19168380011785556120c8565b828001600101855582156120c8579182015b828111156120c75782518255916020019190600101906120ac565b5b5090506120d591906120d9565b5090565b5b808211156120f25760008160009055506001016120da565b5090565b600061210961210484612704565b6126d3565b90508281526020810184848401111561212157600080fd5b61212c84828561286a565b509392505050565b600081359050612143816129c5565b92915050565b600081359050612158816129dc565b92915050565b60008151905061216d816129f3565b92915050565b60008083601f84011261218557600080fd5b8235905067ffffffffffffffff81111561219e57600080fd5b6020830191508360018202830111156121b657600080fd5b9250929050565b600082601f8301126121ce57600080fd5b81356121de8482602086016120f6565b91505092915050565b6000813590506121f681612a0a565b92915050565b60006020828403121561220e57600080fd5b600061221c84828501612134565b91505092915050565b6000806040838503121561223857600080fd5b600061224685828601612134565b925050602061225785828601612134565b9150509250929050565b60008060006060848603121561227657600080fd5b600061228486828701612134565b935050602061229586828701612134565b92505060406122a6868287016121e7565b9150509250925092565b6000806000806000608086880312156122c857600080fd5b60006122d688828901612134565b95505060206122e788828901612134565b94505060406122f8888289016121e7565b935050606086013567ffffffffffffffff81111561231557600080fd5b61232188828901612173565b92509250509295509295909350565b6000806040838503121561234357600080fd5b600061235185828601612134565b925050602061236285828601612149565b9150509250929050565b6000806040838503121561237f57600080fd5b600061238d85828601612134565b925050602061239e858286016121e7565b9150509250929050565b6000602082840312156123ba57600080fd5b60006123c88482850161215e565b91505092915050565b6000602082840312156123e357600080fd5b600082013567ffffffffffffffff8111156123fd57600080fd5b612409848285016121bd565b91505092915050565b60006020828403121561242457600080fd5b6000612432848285016121e7565b91505092915050565b6000806040838503121561244e57600080fd5b600061245c858286016121e7565b925050602061246d858286016121e7565b9150509250929050565b612480816127f6565b82525050565b61248f81612808565b82525050565b60006124a082612734565b6124aa818561274a565b93506124ba818560208601612879565b6124c3816129b4565b840191505092915050565b60006124d98261273f565b6124e3818561275b565b93506124f3818560208601612879565b6124fc816129b4565b840191505092915050565b600061251460148361275b565b91507f50726963652063616e6e6f74206265207a65726f0000000000000000000000006000830152602082019050919050565b600061255460178361275b565b91507f596f7520646f206e6f74206f776e2074686973204e46540000000000000000006000830152602082019050919050565b61259081612860565b82525050565b60006020820190506125ab6000830184612477565b92915050565b60006080820190506125c66000830187612477565b6125d36020830186612477565b6125e06040830185612587565b81810360608301526125f28184612495565b905095945050505050565b60006060820190506126126000830186612477565b818103602083015261262481856124ce565b90506126336040830184612587565b949350505050565b60006020820190506126506000830184612486565b92915050565b6000602082019050818103600083015261267081846124ce565b905092915050565b6000602082019050818103600083015261269181612507565b9050919050565b600060208201905081810360008301526126b181612547565b9050919050565b60006020820190506126cd6000830184612587565b92915050565b6000604051905081810181811067ffffffffffffffff821117156126fa576126f9612985565b5b8060405250919050565b600067ffffffffffffffff82111561271f5761271e612985565b5b601f19601f8301169050602081019050919050565b600081519050919050565b600081519050919050565b600082825260208201905092915050565b600082825260208201905092915050565b600061277782612860565b915061278283612860565b9250827fffffffffffffffffffffffffffffffffffffffffffffffffffffffffffffffff038211156127b7576127b6612927565b5b828201905092915050565b60006127cd82612860565b91506127d883612860565b9250828210156127eb576127ea612927565b5b828203905092915050565b600061280182612840565b9050919050565b60008115159050919050565b60007fffffffff0000000000000000000000000000000000000000000000000000000082169050919050565b600073ffffffffffffffffffffffffffffffffffffffff82169050919050565b6000819050919050565b82818337600083830152505050565b60005b8381101561289757808201518184015260208101905061287c565b838111156128a6576000848401525b50505050565b600060028204905060018216806128c457607f821691505b602082108114156128d8576128d7612956565b5b50919050565b60006128e982612860565b91507fffffffffffffffffffffffffffffffffffffffffffffffffffffffffffffffff82141561291c5761291b612927565b5b600182019050919050565b7f4e487b7100000000000000000000000000000000000000000000000000000000600052601160045260246000fd5b7f4e487b7100000000000000000000000000000000000000000000000000000000600052602260045260246000fd5b7f4e487b7100000000000000000000000000000000000000000000000000000000600052604160045260246000fd5b6000601f19601f8301169050919050565b6129ce816127f6565b81146129d957600080fd5b50565b6129e581612808565b81146129f057600080fd5b50565b6129fc81612814565b8114612a0757600080fd5b50565b612a1381612860565b8114612a1e57600080fd5b5056fea2646970667358221220859ff36eb1d9747a0fe610f21b94337512804bf261d17170067760cce126f2a464736f6c63430008000033",
  "immutableReferences": {},
  "source": "// SPDX-License-Identifier: MIT\npragma solidity ^0.8.0;\n\nimport \"./NFT.sol\";\n\ncontract MyCollectible is NFT {\n  struct Collectible {\n    address owner;\n    string URI;\n    uint256 price;\n  }\n\n  uint256 tokenCounter = 1;\n\n  mapping(uint256 => Collectible) public collectibles;\n\n  constructor() {\n  }\n\n  function mint(string memory tokenURI) public returns (uint256) {\n    uint256 tokenId = tokenCounter++;\n    _mint(msg.sender, tokenId);\n    collectibles[tokenId] = Collectible(msg.sender, tokenURI, 0);\n    return tokenId;\n  }\n\n  function getPrice(uint256 tokenId) public view returns (uint256) {\n    return collectibles[tokenId].price;\n  }\n\n  function setPrice(uint256 tokenId, uint price) public {\n    require(msg.sender == collectibles[tokenId].owner, \"You do not own this NFT\");\n    require(price != 0, \"Price cannot be zero\");\n    collectibles[tokenId].price = price;\n  }\n\n  function getCount() public view returns (uint256) {\n    return tokenCounter - 1;\n  }\n}\n",
  "sourcePath": "C:/Users/angya/Desktop/Blockchain/NFTime/contracts/MyCollectible.sol",
  "compiler": {
    "name": "solc",
    "version": "0.8.0+commit.c7dfd78e.Emscripten.clang"
  },
  "schemaVersion": "3.4.0",
  "updatedAt": "2021-05-08T11:06:53.202Z",
  "networkType": "ethereum",
  "devdoc": {
    "kind": "dev",
    "methods": {
      "approve(address,uint256)": {
        "details": "The zero address indicates there is no approved address.  Throws unless `msg.sender` is the current NFT owner, or an authorized  operator of the current owner.",
        "params": {
          "_approved": "The new approved NFT controller",
          "_tokenId": "The NFT to approve"
        }
      },
      "balanceOf(address)": {
        "details": "NFTs assigned to the zero address are considered invalid, and this  function throws for queries about the zero address.",
        "params": {
          "_owner": "An address for whom to query the balance"
        },
        "returns": {
          "_0": "The number of NFTs owned by `_owner`, possibly zero"
        }
      },
      "getApproved(uint256)": {
        "details": "Throws if `_tokenId` is not a valid NFT.",
        "params": {
          "_tokenId": "The NFT to find the approved address for"
        },
        "returns": {
          "_0": "The approved address for this NFT, or the zero address if there is none"
        }
      },
      "isApprovedForAll(address,address)": {
        "params": {
          "_operator": "The address that acts on behalf of the owner",
          "_owner": "The address that owns the NFTs"
        },
        "returns": {
          "_0": "True if `_operator` is an approved operator for `_owner`, false otherwise"
        }
      },
      "ownerOf(uint256)": {
        "details": "NFTs assigned to zero address are considered invalid, and queries  about them do throw.",
        "params": {
          "_tokenId": "The identifier for an NFT"
        },
        "returns": {
          "_0": "The address of the owner of the NFT"
        }
      },
      "safeTransferFrom(address,address,uint256)": {
        "details": "This works identically to the other function with an extra data parameter,  except this function just sets data to \"\".",
        "params": {
          "_from": "The current owner of the NFT",
          "_to": "The new owner",
          "_tokenId": "The NFT to transfer"
        }
      },
      "safeTransferFrom(address,address,uint256,bytes)": {
        "details": "Throws unless `msg.sender` is the current owner, an authorized  operator, or the approved address for this NFT. Throws if `_from` is  not the current owner. Throws if `_to` is the zero address. Throws if  `_tokenId` is not a valid NFT. When transfer is complete, this function  checks if `_to` is a smart contract (code size > 0). If so, it calls  `onERC721Received` on `_to` and throws if the return value is not  `bytes4(keccak256(\"onERC721Received(address,address,uint256,bytes)\"))`.",
        "params": {
          "_data": "Additional data with no specified format, sent in call to `_to`",
          "_from": "The current owner of the NFT",
          "_to": "The new owner",
          "_tokenId": "The NFT to transfer"
        }
      },
      "setApprovalForAll(address,bool)": {
        "details": "Emits the ApprovalForAll event. The contract MUST allow  multiple operators per owner.",
        "params": {
          "_approved": "True if the operator is approved, false to revoke approval",
          "_operator": "Address to add to the set of authorized operators"
        }
      },
      "transferFrom(address,address,uint256)": {
        "details": "Throws unless `msg.sender` is the current owner, an authorized  operator, or the approved address for this NFT. Throws if `_from` is  not the current owner. Throws if `_to` is the zero address. Throws if  `_tokenId` is not a valid NFT.",
        "params": {
          "_from": "The current owner of the NFT",
          "_to": "The new owner",
          "_tokenId": "The NFT to transfer"
        }
      }
    },
    "version": 1
  },
  "userdoc": {
    "kind": "user",
    "methods": {
      "approve(address,uint256)": {
        "notice": "Change or reaffirm the approved address for an NFT"
      },
      "balanceOf(address)": {
        "notice": "Count all NFTs assigned to an owner"
      },
      "getApproved(uint256)": {
        "notice": "Get the approved address for a single NFT"
      },
      "isApprovedForAll(address,address)": {
        "notice": "Query if an address is an authorized operator for another address"
      },
      "ownerOf(uint256)": {
        "notice": "Find the owner of an NFT"
      },
      "safeTransferFrom(address,address,uint256)": {
        "notice": "Transfers the ownership of an NFT from one address to another address"
      },
      "safeTransferFrom(address,address,uint256,bytes)": {
        "notice": "Transfers the ownership of an NFT from one address to another address"
      },
      "setApprovalForAll(address,bool)": {
        "notice": "Enable or disable approval for a third party (\"operator\") to manage  all of `msg.sender`'s assets"
      },
      "transferFrom(address,address,uint256)": {
        "notice": "Transfer ownership of an NFT -- THE CALLER IS RESPONSIBLE  TO CONFIRM THAT `_to` IS CAPABLE OF RECEIVING NFTS OR ELSE  THEY MAY BE PERMANENTLY LOST"
      }
    },
    "version": 1
  }
}