{
  "contractName": "NFT",
  "abi": [
    {
      "anonymous": false,
      "inputs": [
        {
          "indexed": true,
          "internalType": "address",
          "name": "_owner",
          "type": "address"
        },
        {
          "indexed": true,
          "internalType": "address",
          "name": "_approved",
          "type": "address"
        },
        {
          "indexed": true,
          "internalType": "uint256",
          "name": "_tokenId",
          "type": "uint256"
        }
      ],
      "name": "Approval",
      "type": "event"
    },
    {
      "anonymous": false,
      "inputs": [
        {
          "indexed": true,
          "internalType": "address",
          "name": "_owner",
          "type": "address"
        },
        {
          "indexed": true,
          "internalType": "address",
          "name": "_operator",
          "type": "address"
        },
        {
          "indexed": false,
          "internalType": "bool",
          "name": "_approved",
          "type": "bool"
        }
      ],
      "name": "ApprovalForAll",
      "type": "event"
    },
    {
      "anonymous": false,
      "inputs": [
        {
          "indexed": true,
          "internalType": "address",
          "name": "_from",
          "type": "address"
        },
        {
          "indexed": true,
          "internalType": "address",
          "name": "_to",
          "type": "address"
        },
        {
          "indexed": true,
          "internalType": "uint256",
          "name": "_tokenId",
          "type": "uint256"
        }
      ],
      "name": "Transfer",
      "type": "event"
    },
    {
      "inputs": [
        {
          "internalType": "uint256",
          "name": "",
          "type": "uint256"
        }
      ],
      "name": "ownerships",
      "outputs": [
        {
          "internalType": "address",
          "name": "owner",
          "type": "address"
        },
        {
          "internalType": "string",
          "name": "URI",
          "type": "string"
        },
        {
          "internalType": "uint256",
          "name": "price",
          "type": "uint256"
        }
      ],
      "stateMutability": "view",
      "type": "function",
      "constant": true
    },
    {
      "inputs": [
        {
          "internalType": "address",
          "name": "_owner",
          "type": "address"
        }
      ],
      "name": "balanceOf",
      "outputs": [
        {
          "internalType": "uint256",
          "name": "",
          "type": "uint256"
        }
      ],
      "stateMutability": "view",
      "type": "function",
      "constant": true
    },
    {
      "inputs": [
        {
          "internalType": "uint256",
          "name": "_tokenId",
          "type": "uint256"
        }
      ],
      "name": "ownerOf",
      "outputs": [
        {
          "internalType": "address",
          "name": "",
          "type": "address"
        }
      ],
      "stateMutability": "view",
      "type": "function",
      "constant": true
    },
    {
      "inputs": [
        {
          "internalType": "address",
          "name": "_from",
          "type": "address"
        },
        {
          "internalType": "address",
          "name": "_to",
          "type": "address"
        },
        {
          "internalType": "uint256",
          "name": "_tokenId",
          "type": "uint256"
        }
      ],
      "name": "safeTransferFrom",
      "outputs": [],
      "stateMutability": "payable",
      "type": "function",
      "payable": true
    },
    {
      "inputs": [
        {
          "internalType": "address",
          "name": "_from",
          "type": "address"
        },
        {
          "internalType": "address",
          "name": "_to",
          "type": "address"
        },
        {
          "internalType": "uint256",
          "name": "_tokenId",
          "type": "uint256"
        },
        {
          "internalType": "bytes",
          "name": "_data",
          "type": "bytes"
        }
      ],
      "name": "safeTransferFrom",
      "outputs": [],
      "stateMutability": "payable",
      "type": "function",
      "payable": true
    },
    {
      "inputs": [
        {
          "internalType": "address",
          "name": "_from",
          "type": "address"
        },
        {
          "internalType": "address",
          "name": "_to",
          "type": "address"
        },
        {
          "internalType": "uint256",
          "name": "_tokenId",
          "type": "uint256"
        }
      ],
      "name": "transferFrom",
      "outputs": [],
      "stateMutability": "payable",
      "type": "function",
      "payable": true
    },
    {
      "inputs": [
        {
          "internalType": "address",
          "name": "_approved",
          "type": "address"
        },
        {
          "internalType": "uint256",
          "name": "_tokenId",
          "type": "uint256"
        }
      ],
      "name": "approve",
      "outputs": [],
      "stateMutability": "payable",
      "type": "function",
      "payable": true
    },
    {
      "inputs": [
        {
          "internalType": "address",
          "name": "_operator",
          "type": "address"
        },
        {
          "internalType": "bool",
          "name": "_approved",
          "type": "bool"
        }
      ],
      "name": "setApprovalForAll",
      "outputs": [],
      "stateMutability": "nonpayable",
      "type": "function"
    },
    {
      "inputs": [
        {
          "internalType": "uint256",
          "name": "_tokenId",
          "type": "uint256"
        }
      ],
      "name": "getApproved",
      "outputs": [
        {
          "internalType": "address",
          "name": "",
          "type": "address"
        }
      ],
      "stateMutability": "view",
      "type": "function",
      "constant": true
    },
    {
      "inputs": [
        {
          "internalType": "address",
          "name": "_owner",
          "type": "address"
        },
        {
          "internalType": "address",
          "name": "_operator",
          "type": "address"
        }
      ],
      "name": "isApprovedForAll",
      "outputs": [
        {
          "internalType": "bool",
          "name": "",
          "type": "bool"
        }
      ],
      "stateMutability": "view",
      "type": "function",
      "constant": true
    },
    {
      "inputs": [
        {
          "internalType": "string",
          "name": "_uri",
          "type": "string"
        }
      ],
      "name": "mint",
      "outputs": [],
      "stateMutability": "nonpayable",
      "type": "function"
    },
    {
      "inputs": [
        {
          "internalType": "uint256",
          "name": "_tokenId",
          "type": "uint256"
        }
      ],
      "name": "burn",
      "outputs": [],
      "stateMutability": "nonpayable",
      "type": "function"
    },
    {
      "inputs": [
        {
          "internalType": "uint256",
          "name": "_tokenId",
          "type": "uint256"
        },
        {
          "internalType": "uint256",
          "name": "price",
          "type": "uint256"
        }
      ],
      "name": "forSale",
      "outputs": [],
      "stateMutability": "nonpayable",
      "type": "function"
    },
    {
      "inputs": [
        {
          "internalType": "uint256",
          "name": "_tokenId",
          "type": "uint256"
        }
      ],
      "name": "notForSale",
      "outputs": [],
      "stateMutability": "nonpayable",
      "type": "function"
    },
    {
      "inputs": [
        {
          "internalType": "uint256",
          "name": "_tokenId",
          "type": "uint256"
        }
      ],
      "name": "getPrice",
      "outputs": [
        {
          "internalType": "uint256",
          "name": "",
          "type": "uint256"
        }
      ],
      "stateMutability": "view",
      "type": "function",
      "constant": true
    }
  ],
  "bytecode": "0x6080604052600160005534801561001557600080fd5b506131b3806100256000396000f3fe6080604052600436106100e85760003560e01c806354b3efa61161008a578063b88d4fde11610059578063b88d4fde146102db578063d85d3d27146102f7578063e757223014610320578063e985e9c51461035d576100e8565b806354b3efa61461020f5780636352211e1461023857806370a0823114610275578063a22cb465146102b2576100e8565b80633acefa20116100c65780633acefa20146101625780633e7d2f35146101a157806342842e0e146101ca57806342966c68146101e6576100e8565b8063081812fc146100ed578063095ea7b31461012a57806323b872dd14610146575b600080fd5b3480156100f957600080fd5b50610114600480360381019061010f9190612c2e565b61039a565b6040516101219190612d32565b60405180910390f35b610144600480360381019061013f9190612b88565b6104b5565b005b610160600480360381019061015b9190612a7d565b610898565b005b34801561016e57600080fd5b5061018960048036038101906101849190612c2e565b610cea565b60405161019893929190612d99565b60405180910390f35b3480156101ad57600080fd5b506101c860048036038101906101c39190612c2e565b610dbc565b005b6101e460048036038101906101df9190612a7d565b610f9a565b005b3480156101f257600080fd5b5061020d60048036038101906102089190612c2e565b610fba565b005b34801561021b57600080fd5b5061023660048036038101906102319190612c57565b610fc6565b005b34801561024457600080fd5b5061025f600480360381019061025a9190612c2e565b611221565b60405161026c9190612d32565b60405180910390f35b34801561028157600080fd5b5061029c60048036038101906102979190612a18565b61130c565b6040516102a99190612e14565b60405180910390f35b3480156102be57600080fd5b506102d960048036038101906102d49190612b4c565b6113fd565b005b6102f560048036038101906102f09190612acc565b6114fa565b005b34801561030357600080fd5b5061031e60048036038101906103199190612bed565b611551565b005b34801561032c57600080fd5b5061034760048036038101906103429190612c2e565b611574565b6040516103549190612e14565b60405180910390f35b34801561036957600080fd5b50610384600480360381019061037f9190612a41565b611629565b6040516103919190612dd7565b60405180910390f35b600081600073ffffffffffffffffffffffffffffffffffffffff166002600083815260200190815260200160002060009054906101000a900473ffffffffffffffffffffffffffffffffffffffff1673ffffffffffffffffffffffffffffffffffffffff1614156040518060400160405280600d81526020017f4e6f742076616c6964204e46540000000000000000000000000000000000000081525090610478576040517f08c379a000000000000000000000000000000000000000000000000000000000815260040161046f9190612df2565b60405180910390fd5b506003600084815260200190815260200160002060009054906101000a900473ffffffffffffffffffffffffffffffffffffffff16915050919050565b8060006002600083815260200190815260200160002060009054906101000a900473ffffffffffffffffffffffffffffffffffffffff1690503373ffffffffffffffffffffffffffffffffffffffff168173ffffffffffffffffffffffffffffffffffffffff1614806105ae5750600560008273ffffffffffffffffffffffffffffffffffffffff1673ffffffffffffffffffffffffffffffffffffffff16815260200190815260200160002060003373ffffffffffffffffffffffffffffffffffffffff1673ffffffffffffffffffffffffffffffffffffffff16815260200190815260200160002060009054906101000a900460ff165b6040518060400160405280601581526020017f4e6f74206f776e6572206f72206f70657261746f72000000000000000000000081525090610625576040517f08c379a000000000000000000000000000000000000000000000000000000000815260040161061c9190612df2565b60405180910390fd5b5082600073ffffffffffffffffffffffffffffffffffffffff166002600083815260200190815260200160002060009054906101000a900473ffffffffffffffffffffffffffffffffffffffff1673ffffffffffffffffffffffffffffffffffffffff1614156040518060400160405280600d81526020017f4e6f742076616c6964204e46540000000000000000000000000000000000000081525090610702576040517f08c379a00000000000000000000000000000000000000000000000000000000081526004016106f99190612df2565b60405180910390fd5b5060006002600086815260200190815260200160002060009054906101000a900473ffffffffffffffffffffffffffffffffffffffff1690508073ffffffffffffffffffffffffffffffffffffffff168673ffffffffffffffffffffffffffffffffffffffff1614156040518060400160405280600881526020017f4973206f776e6572000000000000000000000000000000000000000000000000815250906107e2576040517f08c379a00000000000000000000000000000000000000000000000000000000081526004016107d99190612df2565b60405180910390fd5b50856003600087815260200190815260200160002060006101000a81548173ffffffffffffffffffffffffffffffffffffffff021916908373ffffffffffffffffffffffffffffffffffffffff160217905550848673ffffffffffffffffffffffffffffffffffffffff168273ffffffffffffffffffffffffffffffffffffffff167f8c5be1e5ebec7d5bd14f71427d1e84f3dd0314c0f7b2291e5b200ac8c7c3b92560405160405180910390a4505050505050565b8060006002600083815260200190815260200160002060009054906101000a900473ffffffffffffffffffffffffffffffffffffffff1690503373ffffffffffffffffffffffffffffffffffffffff168173ffffffffffffffffffffffffffffffffffffffff16148061096957503373ffffffffffffffffffffffffffffffffffffffff166003600084815260200190815260200160002060009054906101000a900473ffffffffffffffffffffffffffffffffffffffff1673ffffffffffffffffffffffffffffffffffffffff16145b806109fa5750600560008273ffffffffffffffffffffffffffffffffffffffff1673ffffffffffffffffffffffffffffffffffffffff16815260200190815260200160002060003373ffffffffffffffffffffffffffffffffffffffff1673ffffffffffffffffffffffffffffffffffffffff16815260200190815260200160002060009054906101000a900460ff165b6040518060400160405280601e81526020017f4e6f74206f776e657220617070726f766564206f72206f70657261746f72000081525090610a71576040517f08c379a0000000000000000000000000000000000000000000000000000000008152600401610a689190612df2565b60405180910390fd5b5082600073ffffffffffffffffffffffffffffffffffffffff166002600083815260200190815260200160002060009054906101000a900473ffffffffffffffffffffffffffffffffffffffff1673ffffffffffffffffffffffffffffffffffffffff1614156040518060400160405280600d81526020017f4e6f742076616c6964204e46540000000000000000000000000000000000000081525090610b4e576040517f08c379a0000000000000000000000000000000000000000000000000000000008152600401610b459190612df2565b60405180910390fd5b5060006002600086815260200190815260200160002060009054906101000a900473ffffffffffffffffffffffffffffffffffffffff1690508673ffffffffffffffffffffffffffffffffffffffff168173ffffffffffffffffffffffffffffffffffffffff16146040518060400160405280600981526020017f4e6f74206f776e6572000000000000000000000000000000000000000000000081525090610c2d576040517f08c379a0000000000000000000000000000000000000000000000000000000008152600401610c249190612df2565b60405180910390fd5b50600073ffffffffffffffffffffffffffffffffffffffff168673ffffffffffffffffffffffffffffffffffffffff1614156040518060400160405280600c81526020017f5a65726f2061646472657373000000000000000000000000000000000000000081525090610cd6576040517f08c379a0000000000000000000000000000000000000000000000000000000008152600401610ccd9190612df2565b60405180910390fd5b50610ce186866116bd565b50505050505050565b60016020528060005260406000206000915090508060000160009054906101000a900473ffffffffffffffffffffffffffffffffffffffff1690806001018054610d3390613008565b80601f0160208091040260200160405190810160405280929190818152602001828054610d5f90613008565b8015610dac5780601f10610d8157610100808354040283529160200191610dac565b820191906000526020600020905b815481529060010190602001808311610d8f57829003601f168201915b5050505050908060020154905083565b8060006002600083815260200190815260200160002060009054906101000a900473ffffffffffffffffffffffffffffffffffffffff1690503373ffffffffffffffffffffffffffffffffffffffff168173ffffffffffffffffffffffffffffffffffffffff16146040518060400160405280600981526020017f4e6f74206f776e6572000000000000000000000000000000000000000000000081525090610e9b576040517f08c379a0000000000000000000000000000000000000000000000000000000008152600401610e929190612df2565b60405180910390fd5b503373ffffffffffffffffffffffffffffffffffffffff166001600084815260200190815260200160002060000160009054906101000a900473ffffffffffffffffffffffffffffffffffffffff1673ffffffffffffffffffffffffffffffffffffffff16146040518060400160405280600981526020017f4e6f74206f776e6572000000000000000000000000000000000000000000000081525090610f78576040517f08c379a0000000000000000000000000000000000000000000000000000000008152600401610f6f9190612df2565b60405180910390fd5b5060006001600085815260200190815260200160002060020181905550505050565b610fb58383836040518060200160405280600081525061177b565b505050565b610fc381611d49565b50565b8160006002600083815260200190815260200160002060009054906101000a900473ffffffffffffffffffffffffffffffffffffffff1690503373ffffffffffffffffffffffffffffffffffffffff168173ffffffffffffffffffffffffffffffffffffffff16146040518060400160405280600981526020017f4e6f74206f776e65720000000000000000000000000000000000000000000000815250906110a5576040517f08c379a000000000000000000000000000000000000000000000000000000000815260040161109c9190612df2565b60405180910390fd5b503373ffffffffffffffffffffffffffffffffffffffff166001600084815260200190815260200160002060000160009054906101000a900473ffffffffffffffffffffffffffffffffffffffff1673ffffffffffffffffffffffffffffffffffffffff16146040518060400160405280600981526020017f4e6f74206f776e6572000000000000000000000000000000000000000000000081525090611182576040517f08c379a00000000000000000000000000000000000000000000000000000000081526004016111799190612df2565b60405180910390fd5b5060008314156040518060400160405280601481526020017f50726963652063616e6e6f74206265207a65726f000000000000000000000000815250906111ff576040517f08c379a00000000000000000000000000000000000000000000000000000000081526004016111f69190612df2565b60405180910390fd5b5082600160008681526020019081526020016000206002018190555050505050565b6000806002600084815260200190815260200160002060009054906101000a900473ffffffffffffffffffffffffffffffffffffffff169050600073ffffffffffffffffffffffffffffffffffffffff168173ffffffffffffffffffffffffffffffffffffffff1614156040518060400160405280600d81526020017f4e6f742076616c6964204e46540000000000000000000000000000000000000081525090611302576040517f08c379a00000000000000000000000000000000000000000000000000000000081526004016112f99190612df2565b60405180910390fd5b5080915050919050565b60008073ffffffffffffffffffffffffffffffffffffffff168273ffffffffffffffffffffffffffffffffffffffff1614156040518060400160405280600c81526020017f5a65726f20616464726573730000000000000000000000000000000000000000815250906113b5576040517f08c379a00000000000000000000000000000000000000000000000000000000081526004016113ac9190612df2565b60405180910390fd5b50600460008373ffffffffffffffffffffffffffffffffffffffff1673ffffffffffffffffffffffffffffffffffffffff168152602001908152602001600020549050919050565b80600560003373ffffffffffffffffffffffffffffffffffffffff1673ffffffffffffffffffffffffffffffffffffffff16815260200190815260200160002060008473ffffffffffffffffffffffffffffffffffffffff1673ffffffffffffffffffffffffffffffffffffffff16815260200190815260200160002060006101000a81548160ff0219169083151502179055508173ffffffffffffffffffffffffffffffffffffffff163373ffffffffffffffffffffffffffffffffffffffff167f17307eab39ab6107e8899845ad3d59bd9653f200f220920489ca2b5937696c31836040516114ee9190612dd7565b60405180910390a35050565b61154a85858585858080601f016020809104026020016040519081016040528093929190818152602001838380828437600081840152601f19601f8201169050808301925050505050505061177b565b5050505050565b611571336000808154809291906115679061303a565b9190505583611edb565b50565b6000816000600160008381526020019081526020016000206002015414156040518060400160405280601081526020017f4e4654206e6f7420666f722073616c650000000000000000000000000000000081525090611609576040517f08c379a00000000000000000000000000000000000000000000000000000000081526004016116009190612df2565b60405180910390fd5b506001600084815260200190815260200160002060020154915050919050565b6000600560008473ffffffffffffffffffffffffffffffffffffffff1673ffffffffffffffffffffffffffffffffffffffff16815260200190815260200160002060008373ffffffffffffffffffffffffffffffffffffffff1673ffffffffffffffffffffffffffffffffffffffff16815260200190815260200160002060009054906101000a900460ff16905092915050565b60006002600083815260200190815260200160002060009054906101000a900473ffffffffffffffffffffffffffffffffffffffff1690506116fe826120d4565b6117088183612175565b6117128383612318565b61171b826124d8565b818373ffffffffffffffffffffffffffffffffffffffff168273ffffffffffffffffffffffffffffffffffffffff167fddf252ad1be2c89b69c2b068fc378daa952ba7f163c4a11628f55a4df523b3ef60405160405180910390a4505050565b8160006002600083815260200190815260200160002060009054906101000a900473ffffffffffffffffffffffffffffffffffffffff1690503373ffffffffffffffffffffffffffffffffffffffff168173ffffffffffffffffffffffffffffffffffffffff16148061184c57503373ffffffffffffffffffffffffffffffffffffffff166003600084815260200190815260200160002060009054906101000a900473ffffffffffffffffffffffffffffffffffffffff1673ffffffffffffffffffffffffffffffffffffffff16145b806118dd5750600560008273ffffffffffffffffffffffffffffffffffffffff1673ffffffffffffffffffffffffffffffffffffffff16815260200190815260200160002060003373ffffffffffffffffffffffffffffffffffffffff1673ffffffffffffffffffffffffffffffffffffffff16815260200190815260200160002060009054906101000a900460ff165b6040518060400160405280601e81526020017f4e6f74206f776e657220617070726f766564206f72206f70657261746f72000081525090611954576040517f08c379a000000000000000000000000000000000000000000000000000000000815260040161194b9190612df2565b60405180910390fd5b5083600073ffffffffffffffffffffffffffffffffffffffff166002600083815260200190815260200160002060009054906101000a900473ffffffffffffffffffffffffffffffffffffffff1673ffffffffffffffffffffffffffffffffffffffff1614156040518060400160405280600d81526020017f4e6f742076616c6964204e46540000000000000000000000000000000000000081525090611a31576040517f08c379a0000000000000000000000000000000000000000000000000000000008152600401611a289190612df2565b60405180910390fd5b5060006002600087815260200190815260200160002060009054906101000a900473ffffffffffffffffffffffffffffffffffffffff1690508773ffffffffffffffffffffffffffffffffffffffff168173ffffffffffffffffffffffffffffffffffffffff16146040518060400160405280600981526020017f4e6f74206f776e6572000000000000000000000000000000000000000000000081525090611b10576040517f08c379a0000000000000000000000000000000000000000000000000000000008152600401611b079190612df2565b60405180910390fd5b50600073ffffffffffffffffffffffffffffffffffffffff168773ffffffffffffffffffffffffffffffffffffffff1614156040518060400160405280600c81526020017f5a65726f2061646472657373000000000000000000000000000000000000000081525090611bb9576040517f08c379a0000000000000000000000000000000000000000000000000000000008152600401611bb09190612df2565b60405180910390fd5b50611bc487876116bd565b611be38773ffffffffffffffffffffffffffffffffffffffff166126d2565b15611d3f5760008773ffffffffffffffffffffffffffffffffffffffff1663150b7a02338b8a8a6040518563ffffffff1660e01b8152600401611c299493929190612d4d565b602060405180830381600087803b158015611c4357600080fd5b505af1158015611c57573d6000803e3d6000fd5b505050506040513d601f19601f82011682018060405250810190611c7b9190612bc4565b905063150b7a0260e01b7bffffffffffffffffffffffffffffffffffffffffffffffffffffffff1916817bffffffffffffffffffffffffffffffffffffffffffffffffffffffff1916146040518060400160405280601781526020017f4e6f742061626c6520746f2072656365697665204e465400000000000000000081525090611d3c576040517f08c379a0000000000000000000000000000000000000000000000000000000008152600401611d339190612df2565b60405180910390fd5b50505b5050505050505050565b80600073ffffffffffffffffffffffffffffffffffffffff166002600083815260200190815260200160002060009054906101000a900473ffffffffffffffffffffffffffffffffffffffff1673ffffffffffffffffffffffffffffffffffffffff1614156040518060400160405280600d81526020017f4e6f742076616c6964204e46540000000000000000000000000000000000000081525090611e25576040517f08c379a0000000000000000000000000000000000000000000000000000000008152600401611e1c9190612df2565b60405180910390fd5b5060006002600084815260200190815260200160002060009054906101000a900473ffffffffffffffffffffffffffffffffffffffff169050611e67836120d4565b611e718184612175565b611e7a8361271d565b82600073ffffffffffffffffffffffffffffffffffffffff168273ffffffffffffffffffffffffffffffffffffffff167fddf252ad1be2c89b69c2b068fc378daa952ba7f163c4a11628f55a4df523b3ef60405160405180910390a4505050565b600073ffffffffffffffffffffffffffffffffffffffff168373ffffffffffffffffffffffffffffffffffffffff1614156040518060400160405280600c81526020017f5a65726f2061646472657373000000000000000000000000000000000000000081525090611f83576040517f08c379a0000000000000000000000000000000000000000000000000000000008152600401611f7a9190612df2565b60405180910390fd5b50600073ffffffffffffffffffffffffffffffffffffffff166002600084815260200190815260200160002060009054906101000a900473ffffffffffffffffffffffffffffffffffffffff1673ffffffffffffffffffffffffffffffffffffffff16146040518060400160405280601281526020017f4e465420616c72656164792065786973747300000000000000000000000000008152509061205e576040517f08c379a00000000000000000000000000000000000000000000000000000000081526004016120559190612df2565b60405180910390fd5b506120698383612318565b6120738282612775565b818373ffffffffffffffffffffffffffffffffffffffff16600073ffffffffffffffffffffffffffffffffffffffff167fddf252ad1be2c89b69c2b068fc378daa952ba7f163c4a11628f55a4df523b3ef60405160405180910390a4505050565b600073ffffffffffffffffffffffffffffffffffffffff166003600083815260200190815260200160002060009054906101000a900473ffffffffffffffffffffffffffffffffffffffff1673ffffffffffffffffffffffffffffffffffffffff1614612172576003600082815260200190815260200160002060006101000a81549073ffffffffffffffffffffffffffffffffffffffff02191690555b50565b8173ffffffffffffffffffffffffffffffffffffffff166002600083815260200190815260200160002060009054906101000a900473ffffffffffffffffffffffffffffffffffffffff1673ffffffffffffffffffffffffffffffffffffffff16146040518060400160405280600981526020017f4e6f74206f776e657200000000000000000000000000000000000000000000008152509061224e576040517f08c379a00000000000000000000000000000000000000000000000000000000081526004016122459190612df2565b60405180910390fd5b506001600460008473ffffffffffffffffffffffffffffffffffffffff1673ffffffffffffffffffffffffffffffffffffffff1681526020019081526020016000205461229b9190612f1e565b600460008473ffffffffffffffffffffffffffffffffffffffff1673ffffffffffffffffffffffffffffffffffffffff168152602001908152602001600020819055506002600082815260200190815260200160002060006101000a81549073ffffffffffffffffffffffffffffffffffffffff02191690555050565b600073ffffffffffffffffffffffffffffffffffffffff166002600083815260200190815260200160002060009054906101000a900473ffffffffffffffffffffffffffffffffffffffff1673ffffffffffffffffffffffffffffffffffffffff16146040518060400160405280601281526020017f4e465420616c7265616479206578697374730000000000000000000000000000815250906123f2576040517f08c379a00000000000000000000000000000000000000000000000000000000081526004016123e99190612df2565b60405180910390fd5b50816002600083815260200190815260200160002060006101000a81548173ffffffffffffffffffffffffffffffffffffffff021916908373ffffffffffffffffffffffffffffffffffffffff1602179055506001600460008473ffffffffffffffffffffffffffffffffffffffff1673ffffffffffffffffffffffffffffffffffffffff168152602001908152602001600020546124919190612ec8565b600460008473ffffffffffffffffffffffffffffffffffffffff1673ffffffffffffffffffffffffffffffffffffffff168152602001908152602001600020819055505050565b6000600160008381526020019081526020016000206002015414156040518060400160405280601081526020017f4e4654206e6f7420666f722073616c65000000000000000000000000000000008152509061256a576040517f08c379a00000000000000000000000000000000000000000000000000000000081526004016125619190612df2565b60405180910390fd5b5060016000828152602001908152602001600020600201543410156040518060400160405280600e81526020017f4e465420636f737473206d6f7265000000000000000000000000000000000000815250906125fc576040517f08c379a00000000000000000000000000000000000000000000000000000000081526004016125f39190612df2565b60405180910390fd5b506001600082815260200190815260200160002060000160009054906101000a900473ffffffffffffffffffffffffffffffffffffffff1673ffffffffffffffffffffffffffffffffffffffff166108fc349081150290604051600060405180830381858888f19350505050158015612679573d6000803e3d6000fd5b50336001600083815260200190815260200160002060000160006101000a81548173ffffffffffffffffffffffffffffffffffffffff021916908373ffffffffffffffffffffffffffffffffffffffff16021790555050565b60008060007fc5d2460186f7233c927e7db2dcc703c0e500b653ca82273b7bfad8045d85a47060001b9050833f91506000801b82141580156127145750808214155b92505050919050565b60016000828152602001908152602001600020600080820160006101000a81549073ffffffffffffffffffffffffffffffffffffffff0219169055600182016000612768919061282f565b6002820160009055505050565b60405180606001604052803373ffffffffffffffffffffffffffffffffffffffff16815260200182815260200160008152506001600084815260200190815260200160002060008201518160000160006101000a81548173ffffffffffffffffffffffffffffffffffffffff021916908373ffffffffffffffffffffffffffffffffffffffff160217905550602082015181600101908051906020019061281d92919061286f565b50604082015181600201559050505050565b50805461283b90613008565b6000825580601f1061284d575061286c565b601f01602090049060005260206000209081019061286b91906128f5565b5b50565b82805461287b90613008565b90600052602060002090601f01602090048101928261289d57600085556128e4565b82601f106128b657805160ff19168380011785556128e4565b828001600101855582156128e4579182015b828111156128e35782518255916020019190600101906128c8565b5b5090506128f191906128f5565b5090565b5b8082111561290e5760008160009055506001016128f6565b5090565b600061292561292084612e60565b612e2f565b90508281526020810184848401111561293d57600080fd5b612948848285612fc6565b509392505050565b60008135905061295f81613121565b92915050565b60008135905061297481613138565b92915050565b6000815190506129898161314f565b92915050565b60008083601f8401126129a157600080fd5b8235905067ffffffffffffffff8111156129ba57600080fd5b6020830191508360018202830111156129d257600080fd5b9250929050565b600082601f8301126129ea57600080fd5b81356129fa848260208601612912565b91505092915050565b600081359050612a1281613166565b92915050565b600060208284031215612a2a57600080fd5b6000612a3884828501612950565b91505092915050565b60008060408385031215612a5457600080fd5b6000612a6285828601612950565b9250506020612a7385828601612950565b9150509250929050565b600080600060608486031215612a9257600080fd5b6000612aa086828701612950565b9350506020612ab186828701612950565b9250506040612ac286828701612a03565b9150509250925092565b600080600080600060808688031215612ae457600080fd5b6000612af288828901612950565b9550506020612b0388828901612950565b9450506040612b1488828901612a03565b935050606086013567ffffffffffffffff811115612b3157600080fd5b612b3d8882890161298f565b92509250509295509295909350565b60008060408385031215612b5f57600080fd5b6000612b6d85828601612950565b9250506020612b7e85828601612965565b9150509250929050565b60008060408385031215612b9b57600080fd5b6000612ba985828601612950565b9250506020612bba85828601612a03565b9150509250929050565b600060208284031215612bd657600080fd5b6000612be48482850161297a565b91505092915050565b600060208284031215612bff57600080fd5b600082013567ffffffffffffffff811115612c1957600080fd5b612c25848285016129d9565b91505092915050565b600060208284031215612c4057600080fd5b6000612c4e84828501612a03565b91505092915050565b60008060408385031215612c6a57600080fd5b6000612c7885828601612a03565b9250506020612c8985828601612a03565b9150509250929050565b612c9c81612f52565b82525050565b612cab81612f64565b82525050565b6000612cbc82612e90565b612cc68185612ea6565b9350612cd6818560208601612fd5565b612cdf81613110565b840191505092915050565b6000612cf582612e9b565b612cff8185612eb7565b9350612d0f818560208601612fd5565b612d1881613110565b840191505092915050565b612d2c81612fbc565b82525050565b6000602082019050612d476000830184612c93565b92915050565b6000608082019050612d626000830187612c93565b612d6f6020830186612c93565b612d7c6040830185612d23565b8181036060830152612d8e8184612cb1565b905095945050505050565b6000606082019050612dae6000830186612c93565b8181036020830152612dc08185612cea565b9050612dcf6040830184612d23565b949350505050565b6000602082019050612dec6000830184612ca2565b92915050565b60006020820190508181036000830152612e0c8184612cea565b905092915050565b6000602082019050612e296000830184612d23565b92915050565b6000604051905081810181811067ffffffffffffffff82111715612e5657612e556130e1565b5b8060405250919050565b600067ffffffffffffffff821115612e7b57612e7a6130e1565b5b601f19601f8301169050602081019050919050565b600081519050919050565b600081519050919050565b600082825260208201905092915050565b600082825260208201905092915050565b6000612ed382612fbc565b9150612ede83612fbc565b9250827fffffffffffffffffffffffffffffffffffffffffffffffffffffffffffffffff03821115612f1357612f12613083565b5b828201905092915050565b6000612f2982612fbc565b9150612f3483612fbc565b925082821015612f4757612f46613083565b5b828203905092915050565b6000612f5d82612f9c565b9050919050565b60008115159050919050565b60007fffffffff0000000000000000000000000000000000000000000000000000000082169050919050565b600073ffffffffffffffffffffffffffffffffffffffff82169050919050565b6000819050919050565b82818337600083830152505050565b60005b83811015612ff3578082015181840152602081019050612fd8565b83811115613002576000848401525b50505050565b6000600282049050600182168061302057607f821691505b60208210811415613034576130336130b2565b5b50919050565b600061304582612fbc565b91507fffffffffffffffffffffffffffffffffffffffffffffffffffffffffffffffff82141561307857613077613083565b5b600182019050919050565b7f4e487b7100000000000000000000000000000000000000000000000000000000600052601160045260246000fd5b7f4e487b7100000000000000000000000000000000000000000000000000000000600052602260045260246000fd5b7f4e487b7100000000000000000000000000000000000000000000000000000000600052604160045260246000fd5b6000601f19601f8301169050919050565b61312a81612f52565b811461313557600080fd5b50565b61314181612f64565b811461314c57600080fd5b50565b61315881612f70565b811461316357600080fd5b50565b61316f81612fbc565b811461317a57600080fd5b5056fea264697066735822122074ca830dd61f93e4f0fb3d4891c066967900fa6ffeda798c437b338982d29c7f64736f6c63430008000033",
  "immutableReferences": {},
  "source": "// SPDX-License-Identifier: MIT\npragma solidity ^0.8.0;\n\nimport \"../interfaces/ERC721.sol\";\nimport \"../interfaces/ERC721TokenReceiver.sol\";\nimport \"./utils/AddressUtils.sol\";\n\ncontract NFT is ERC721 {\n  using AddressUtils for address;\n\n  struct Token {\n    address owner;\n    string URI;\n    uint256 price;\n  }\n\n  uint256 lastID = 1;\n\n  string constant ZERO_ADDRESS = \"Zero address\";\n  string constant NOT_VALID_NFT = \"Not valid NFT\";\n  string constant NOT_OWNER_APPROVED_OR_OPERATOR = \"Not owner approved or operator\";\n  string constant NOT_OWNER = \"Not owner\";\n  string constant NOT_ABLE_TO_RECEIVE_NFT = \"Not able to receive NFT\";\n  string constant NFT_ALREADY_EXISTS = \"NFT already exists\";\n  string constant NOT_OWNER_OR_OPERATOR = \"Not owner or operator\";\n  string constant IS_OWNER = \"Is owner\";\n  string constant NFT_NOT_FOR_SALE = \"NFT not for sale\";\n  string constant NFT_COSTS_MORE = \"NFT costs more\";\n  string constant PRICE_CANNOT_BE_ZERO = \"Price cannot be zero\";\n\n  bytes4 internal constant MAGIC_ON_ERC721_RECEIVED = 0x150b7a02;\n\n  mapping(uint256 => Token) public ownerships;\n\n  mapping (uint256 => address) internal idToOwner;\n  mapping (uint256 => address) internal idToApproval;\n  mapping (address => uint256) private ownerToNFTCount;\n  mapping (address => mapping (address => bool)) internal ownerToOperators;\n\n  modifier onlyForSale (uint256 _tokenId) {\n    require(\n      ownerships[_tokenId].price != 0,\n      NFT_NOT_FOR_SALE);\n    _;\n  }\n\n  modifier onlyOwner(uint256 _tokenId) {\n    address tokenOwner = idToOwner[_tokenId];\n    require(\n      tokenOwner == msg.sender,\n      NOT_OWNER\n    );\n    require(\n      ownerships[_tokenId].owner == msg.sender,\n      NOT_OWNER\n    );\n    _;\n  }\n\n  modifier canOperate(uint256 _tokenId) {\n    address tokenOwner = idToOwner[_tokenId];\n    require(\n      tokenOwner == msg.sender ||\n      ownerToOperators[tokenOwner][msg.sender],\n      NOT_OWNER_OR_OPERATOR\n    );\n    _;\n  }\n\n  modifier canTransfer(uint256 _tokenId) {\n    address tokenOwner = idToOwner[_tokenId];\n    require(\n      tokenOwner == msg.sender ||\n      idToApproval[_tokenId] == msg.sender ||\n      ownerToOperators[tokenOwner][msg.sender],\n      NOT_OWNER_APPROVED_OR_OPERATOR\n    );\n    _;\n  }\n\n  modifier validNFT(uint256 _tokenId) {\n    require(idToOwner[_tokenId] != address(0), NOT_VALID_NFT);\n    _;\n  }\n\n  function balanceOf(address _owner) public override view returns (uint256) {\n    require(_owner != address(0), ZERO_ADDRESS);\n    return ownerToNFTCount[_owner];\n  }\n\n  function ownerOf(uint256 _tokenId) public override view returns (address) {\n    address _owner = idToOwner[_tokenId];\n    require(_owner != address(0), NOT_VALID_NFT);\n    return _owner;\n  }\n\n  function safeTransferFrom(address _from, address _to, uint256 _tokenId, bytes calldata _data) public override payable {\n    _safeTransferFrom(_from, _to, _tokenId, _data);\n  }\n\n  function safeTransferFrom(address _from, address _to, uint256 _tokenId) public override payable {\n    _safeTransferFrom(_from, _to, _tokenId, \"\");\n  }\n\n  function transferFrom(address _from, address _to, uint256 _tokenId) public override payable\n    canTransfer(_tokenId)\n    validNFT(_tokenId)\n  {\n    address tokenOwner = idToOwner[_tokenId];\n    require(tokenOwner == _from, NOT_OWNER);\n    require(_to != address(0), ZERO_ADDRESS);\n    _transfer(_to, _tokenId);\n  }\n\n  function approve(address _approved, uint256 _tokenId) public override payable\n    canOperate(_tokenId)\n    validNFT(_tokenId)\n  {\n    address tokenOwner = idToOwner[_tokenId];\n    require(_approved != tokenOwner, IS_OWNER);\n    idToApproval[_tokenId] = _approved;\n    emit Approval(tokenOwner, _approved, _tokenId);\n  }\n\n  function setApprovalForAll(address _operator, bool _approved) public override {\n    ownerToOperators[msg.sender][_operator] = _approved;\n    emit ApprovalForAll(msg.sender, _operator, _approved);\n  }\n\n  function getApproved(uint256 _tokenId) public override view validNFT(_tokenId) returns (address) {\n    return idToApproval[_tokenId];\n  }\n\n  function isApprovedForAll(address _owner, address _operator) public override view returns (bool) {\n    return ownerToOperators[_owner][_operator];\n  }\n\n  function _safeTransferFrom(address _from, address _to, uint256 _tokenId, bytes memory _data) private\n    canTransfer(_tokenId)\n    validNFT(_tokenId)\n  {\n    address tokenOwner = idToOwner[_tokenId];\n    require(tokenOwner == _from, NOT_OWNER);\n    require(_to != address(0), ZERO_ADDRESS);\n    _transfer(_to, _tokenId);\n\n    if (_to.isContract())\n    {\n      bytes4 retval = ERC721TokenReceiver(_to).onERC721Received(msg.sender, _from, _tokenId, _data);\n      require(retval == MAGIC_ON_ERC721_RECEIVED, NOT_ABLE_TO_RECEIVE_NFT);\n    }\n  }\n\n  function _transfer(address _to, uint256 _tokenId) internal {\n    address from = idToOwner[_tokenId];\n    _clearApproval(_tokenId);\n    _removeNFT(from, _tokenId);\n    _addNFT(_to, _tokenId);\n    _transferOwnership(_tokenId);\n    emit Transfer(from, _to, _tokenId);\n  }\n\n  function _transferOwnership(uint256 _tokenId) internal {\n    require(ownerships[_tokenId].price != 0, NFT_NOT_FOR_SALE);\n    require(msg.value >= ownerships[_tokenId].price, NFT_COSTS_MORE);\n    payable(ownerships[_tokenId].owner).transfer(msg.value);\n    ownerships[_tokenId].owner = msg.sender;\n  }\n\n  function _clearApproval(uint256 _tokenId) private {\n    if (idToApproval[_tokenId] != address(0))\n    {\n      delete idToApproval[_tokenId];\n    }\n  }\n\n  function _removeNFT(address _from, uint256 _tokenId) internal virtual {\n    require(idToOwner[_tokenId] == _from, NOT_OWNER);\n    ownerToNFTCount[_from] = ownerToNFTCount[_from] - 1;\n    delete idToOwner[_tokenId];\n  }\n\n  function _addNFT(address _to, uint256 _tokenId) internal virtual {\n    require(idToOwner[_tokenId] == address(0), NFT_ALREADY_EXISTS);\n    idToOwner[_tokenId] = _to;\n    ownerToNFTCount[_to] = ownerToNFTCount[_to] + 1;\n  }\n\n  function _mint(address _to, uint256 _tokenId, string memory _uri) internal virtual {\n    require(_to != address(0), ZERO_ADDRESS);\n    require(idToOwner[_tokenId] == address(0), NFT_ALREADY_EXISTS);\n    _addNFT(_to, _tokenId);\n    _addOwnership(_tokenId, _uri);\n    emit Transfer(address(0), _to, _tokenId);\n  }\n\n  function _addOwnership(uint256 _tokenId, string memory _uri) internal virtual {\n    ownerships[_tokenId] = Token(msg.sender, _uri, 0);\n  }\n\n  function _burn(uint256 _tokenId) internal virtual\n    validNFT(_tokenId)\n  {\n    address tokenOwner = idToOwner[_tokenId];\n    _clearApproval(_tokenId);\n    _removeNFT(tokenOwner, _tokenId);\n    _removeOwnership(_tokenId);\n    emit Transfer(tokenOwner, address(0), _tokenId);\n  }\n\n  function _removeOwnership(uint256 _tokenId) internal virtual {\n    delete ownerships[_tokenId];\n  }\n\n  function mint(string memory _uri) public {\n    _mint(msg.sender, lastID++, _uri);\n  }\n\n  function burn(uint256 _tokenId) public {\n    _burn(_tokenId);\n  }\n\n  function forSale(uint256 _tokenId, uint256 price) public onlyOwner(_tokenId) {\n    require(price != 0, PRICE_CANNOT_BE_ZERO);\n    ownerships[_tokenId].price = price;\n  }\n\n  function notForSale(uint256 _tokenId) public onlyOwner(_tokenId) {\n    ownerships[_tokenId].price = 0;\n  }\n\n  function getPrice(uint256 _tokenId) public view onlyForSale(_tokenId) returns (uint256) {\n    return ownerships[_tokenId].price;\n  }\n}\n",
  "sourcePath": "C:/Users/angya/Desktop/Blockchain/NFTime/contracts/NFT.sol",
  "compiler": {
    "name": "solc",
    "version": "0.8.0+commit.c7dfd78e.Emscripten.clang"
  },
  "schemaVersion": "3.4.0",
  "updatedAt": "2021-05-08T13:39:29.639Z",
  "networkType": "ethereum",
  "devdoc": {
    "kind": "dev",
    "methods": {
      "approve(address,uint256)": {
        "details": "The zero address indicates there is no approved address.  Throws unless `msg.sender` is the current NFT owner, or an authorized  operator of the current owner.",
        "params": {
          "_approved": "The new approved NFT controller",
          "_tokenId": "The NFT to approve"
        }
      },
      "balanceOf(address)": {
        "details": "NFTs assigned to the zero address are considered invalid, and this  function throws for queries about the zero address.",
        "params": {
          "_owner": "An address for whom to query the balance"
        },
        "returns": {
          "_0": "The number of NFTs owned by `_owner`, possibly zero"
        }
      },
      "getApproved(uint256)": {
        "details": "Throws if `_tokenId` is not a valid NFT.",
        "params": {
          "_tokenId": "The NFT to find the approved address for"
        },
        "returns": {
          "_0": "The approved address for this NFT, or the zero address if there is none"
        }
      },
      "isApprovedForAll(address,address)": {
        "params": {
          "_operator": "The address that acts on behalf of the owner",
          "_owner": "The address that owns the NFTs"
        },
        "returns": {
          "_0": "True if `_operator` is an approved operator for `_owner`, false otherwise"
        }
      },
      "ownerOf(uint256)": {
        "details": "NFTs assigned to zero address are considered invalid, and queries  about them do throw.",
        "params": {
          "_tokenId": "The identifier for an NFT"
        },
        "returns": {
          "_0": "The address of the owner of the NFT"
        }
      },
      "safeTransferFrom(address,address,uint256)": {
        "details": "This works identically to the other function with an extra data parameter,  except this function just sets data to \"\".",
        "params": {
          "_from": "The current owner of the NFT",
          "_to": "The new owner",
          "_tokenId": "The NFT to transfer"
        }
      },
      "safeTransferFrom(address,address,uint256,bytes)": {
        "details": "Throws unless `msg.sender` is the current owner, an authorized  operator, or the approved address for this NFT. Throws if `_from` is  not the current owner. Throws if `_to` is the zero address. Throws if  `_tokenId` is not a valid NFT. When transfer is complete, this function  checks if `_to` is a smart contract (code size > 0). If so, it calls  `onERC721Received` on `_to` and throws if the return value is not  `bytes4(keccak256(\"onERC721Received(address,address,uint256,bytes)\"))`.",
        "params": {
          "_data": "Additional data with no specified format, sent in call to `_to`",
          "_from": "The current owner of the NFT",
          "_to": "The new owner",
          "_tokenId": "The NFT to transfer"
        }
      },
      "setApprovalForAll(address,bool)": {
        "details": "Emits the ApprovalForAll event. The contract MUST allow  multiple operators per owner.",
        "params": {
          "_approved": "True if the operator is approved, false to revoke approval",
          "_operator": "Address to add to the set of authorized operators"
        }
      },
      "transferFrom(address,address,uint256)": {
        "details": "Throws unless `msg.sender` is the current owner, an authorized  operator, or the approved address for this NFT. Throws if `_from` is  not the current owner. Throws if `_to` is the zero address. Throws if  `_tokenId` is not a valid NFT.",
        "params": {
          "_from": "The current owner of the NFT",
          "_to": "The new owner",
          "_tokenId": "The NFT to transfer"
        }
      }
    },
    "version": 1
  },
  "userdoc": {
    "kind": "user",
    "methods": {
      "approve(address,uint256)": {
        "notice": "Change or reaffirm the approved address for an NFT"
      },
      "balanceOf(address)": {
        "notice": "Count all NFTs assigned to an owner"
      },
      "getApproved(uint256)": {
        "notice": "Get the approved address for a single NFT"
      },
      "isApprovedForAll(address,address)": {
        "notice": "Query if an address is an authorized operator for another address"
      },
      "ownerOf(uint256)": {
        "notice": "Find the owner of an NFT"
      },
      "safeTransferFrom(address,address,uint256)": {
        "notice": "Transfers the ownership of an NFT from one address to another address"
      },
      "safeTransferFrom(address,address,uint256,bytes)": {
        "notice": "Transfers the ownership of an NFT from one address to another address"
      },
      "setApprovalForAll(address,bool)": {
        "notice": "Enable or disable approval for a third party (\"operator\") to manage  all of `msg.sender`'s assets"
      },
      "transferFrom(address,address,uint256)": {
        "notice": "Transfer ownership of an NFT -- THE CALLER IS RESPONSIBLE  TO CONFIRM THAT `_to` IS CAPABLE OF RECEIVING NFTS OR ELSE  THEY MAY BE PERMANENTLY LOST"
      }
    },
    "version": 1
  }
}